:1000000002009D8041780179007A007B227D0B7C83
:100010000012005E8027792C879075B00075200053
:1000200080117422A920780029F987A0E5B0B401D5
:10003000020520E52024F65002800280E580D77971
:100040002C87A080FE2280BD898288838B00EC4DA6
:100050006036E4E0F608A31DBDFFF31C80F0B80095
:10006000118B00EC4D6021E7F609081DBDFFF41C63
:1000700080F1898288838B00EC4D600CE493F60854
:10008000A31DBDFFF31C80F022E4F5D075812D780F
:10009000207A0DF608DAFC12000302000002008943
:0B010000C090F9A4B080999282F8FF33
:00000001FF
