:1000000002014180338C2D8D2E8013758CD8758A1A
:10001000F0D28C308D02800280F9C28DC28CAC2D62
:10002000E52EFD152E7002152DED24FFEC648034B5
:100030007F4002800280D42280CB02012A75890190
:100040007524007525017526027527047528087525
:100050002910752A20752B40752C808524907C00F2
:100060007D02120003752000752101E52124F8E5C9
:100070002064803478500280028003020127E52149
:10008000B46407E520B400028002800D79278790D0
:100090007C007D641200038075E521B4C807E5206B
:1000A000B400028002800D792A87907C007D641262
:1000B0000003805AE521B42C07E520B40102800238
:1000C000800FE5282529F5907C017D2C1200038006
:1000D0003DE521B45807E520B402028002800FE517
:1000E00026252BF5907C017DF41200038020E5216C
:1000F000B4E807E520B403028002800FE525252C33
:10010000F5907C027DBC12000380038524900521BC
:10011000E52170020520E52124F8E520648034788B
:100120005002800302007E80FE2202003DE4F5D0F2
:1001300075812F78207A0FF608DAFC12003A020057
:040140000002012D8B
:00000001FF
