:100000000200F70200E0780179007A007B207D068B
:100010007C00120122780179067A007B267D067C1D
:1000200000120122752F0075803875A00175A0009F
:1000300075808075A00175A0007580C575A00175DB
:10004000A000752C00E52C24F9500280028002806B
:100050001C7426A92C780029F9878075A00375A047
:1000600002052CE52C24F95002800280E4752F0053
:10007000E52F24F65002800280028058E52F24806C
:10008000F58075A00175A000752D00E52D24FA50AE
:100090000280028002801C7420A92D780029F98733
:1000A0008075A00375A002052DE52D24FA5002806D
:1000B0000280E4E52F2480F58075A00175A000750D
:1000C000800075A00375A002052FE52F24F65002CD
:1000D000800280A875800175A00175A00080FE22B5
:1000E000020006E4F5D075813078207A10F608DA3F
:0A00F000FC1200030200000200E30E
:10010000ABB1A9A365B1A0AEA4B165AA8982888369
:100110008B00EC4D6036E4E0F608A31DBDFFF31C38
:1001200080F0B800118B00EC4D6021E7F609081D46
:10013000BDFFF41C80F1898288838B00EC4D600C3C
:0D014000E493F608A31DBDFFF31C80F02220
:00000001FF
