:1000000002008080657525AA759000752208752309
:1000100000E4F520F521E5212400E520648034602A
:100020005002800280028041E5258522838523825B
:10003000F0852283852382E0F524E524B52504801C
:100040000080037590010523E52370020522759059
:10005000000521E52170020520E5212400E520644A
:100060008034605002800280BF228099E4F5D07510
:10007000812678207A06F608DAFC120003020000D6
:0300800002006C0F
:00000001FF
