:100000000200CBE5836003E49322A882E622E58325
:100010006004E4938003A882E6F822E5836004E4A8
:10002000938003A882E6F922E5836004E4938003C9
:10003000A882E6FA22E5836004E4938003A882E6BE
:10004000FB22E5836004E4938003A882E6FC22E5BA
:10005000836004E4938003A882E6FD22E5836004C4
:10006000E4938003A882E6FE22E5836004E49380A3
:1000700003A882E6FF22898288838B00EC4D6036DC
:10008000E4E0F608A31DBDFFF31C80F0B800118B5F
:1000900000EC4D6021E7F609081DBDFFF41C80F15E
:1000A000898288838B00EC4D600CE493F608A31DD5
:1000B000BDFFF31C80F022E4F5D075815378207ADF
:0E00C00033F608DAFC12015B0200000200B702
:10010000FEFDFBF7001E1D1B1700014501430141C9
:100110000133013F013D013B013101390137013517
:10012000012F014A0148014C012D00000044004309
:1001300000420041003900380037003600350034F5
:10014000003300320031003030002A0023008009E3
:100150008D8075A00375A0022280F50202697523C7
:1001600001752447780179007A007B257D057C00A4
:1001700012008C780179057A007B2A7D057C0012BB
:10018000008C7801790A7A007B2F7D207C00120098
:100190008C7801792A7A007B4F7D037C0012008CD9
:1001A00075803875A00175A00075808075A00175F7
:1001B000A000752000E52024FC500280028003028C
:1001C0000265742AA920780029F987B0752100E515
:1001D0002124FC500280028002807D7425A92178B0
:1001E0000029F9E7B59065E52175F004A4252050B4
:1001F0000205F0A8F0A9E0E9C333F9E833F8742F59
:1002000029F98783098782120003F5527950874FB5
:1002100079518750855251E54F24CF700B8000797A
:1002200050B732048000800280097951B7330480CE
:100230000080048000801075800175A00175A00009
:100240007D7A12014E8005AD5212014E0521E52145
:1002500024FC5002800280830520E52024FC50020B
:0C02600080030201C20201B22202015E12
:00000001FF
